:03000000020423D4
:0C042300787FE4F6D8FD75814E02046A73
:0300030023252092
:1006D80008440A0A0A0A0A0A0A0A0834000000003A
:1006E80000000000083C000000000000000082003C
:0906F8000000012217C100C1033A
:1008B100300307A202E433FF8018E52275F00AA491
:1008C100FFD37801E29F18E295F040047F01800296
:0608D1007F00120918224D
:1005AF00E529C39432406DE4F529FB7A00792A12CC
:1005BF00076CE52B700AE52C7006784EA62CD2023C
:1005CF00784EE6C4540F2405FFE433FE7C00EFB5EC
:1005DF002C06ECB50602C2023002047F0180027FB6
:1005EF0000783CA6073003047F0080027F01783D2E
:1005FF00A607E52275F00AA4FFD37801E29F18E25F
:10060F0095F0400A3001072003047F0180027F002C
:05061F00783EA6072251
:0E09A40000007F237E337DB6DDFEDEFCDFFA31
:0109B2002222
:10053700E526C3940A4070E4F5261208578F25E58F
:10054700246525FF5525F523EFF45525F527852542
:1005570024E523B41111E521B4020C1522E522C3C9
:10056700940A500375220AE521B40109E524B41160
:1005770004D2008002C200E52324F3601324FD6047
:1005870015240470220521E521B4031BE4F521227B
:10059700A203B3920322E521B4020C0522E522D37C
:0805A7009463400375226322F6
:10030100C3E52F94F4E52E94015003020422E4F591
:100311002EF52FE52114700302039A1470030203D2
:10032100F7240260030204221207EEE4FBFA7920AB
:10033100784112000E1201F27800EEF208EFF27825
:1003410044760B0876017848760A18760A18760AF8
:100351007800E2FA08E2FB7C007D64FFAE02120243
:100361009E7C007D0A12029E7849A6057C007D0ACA
:10037100AF03AE0212029E7C007D0A12029E784AF1
:10038100A6057800E2FE08E2FF7C007D0A12029ECB
:10039100784BA605783A7601227B007A00792A12F9
:1003A100076CE4783AF67844760B08760208760A08
:1003B100300004E52B8002E52AC4540FFF7847A6DC
:1003C10007300004E52B8002E52A540FFF7848A688
:1003D1000708760C300004E52C8002E52BC4540F8D
:1003E100FF784AA607300004E52C8002E52B540F64
:1003F100FF784BA607227844760B08760378497676
:100401000A18760A18760A18760AE52275F00A841F
:1004110075F00A84784AA6F0E52275F00A8408A6E8
:02042100F022C7
:10096800538E7F5389F0758A18758CFCC28DD28C92
:05097800D2AFD2A9225C
:03000B000204AF3D
:1004AF00C0E0C0F0C083C082C0D075D000C000C013
:1004BF0001C002C003C004C005C006C007758A187A
:1004CF00758CFC0526052FE52F7002052E052905D5
:1004DF002DE52DB40803752D007444252DF8E6FD88
:1004EF007C007434252DF8E6FB7A00AF2D1207231C
:1004FF00743C252DF8E6FD7C00AF2D12062405284F
:10050F00E528B46408752800A201B39201D007D082
:10051F0006D005D004D003D002D001D000D0D0D067
:08052F0082D083D0F0D0E0324D
:1008D7001207B41209687BFF7A00790312068212A5
:1008E70007EE1209A41205371205AF120301120809
:0308F700B180F2DB
:10099100E4FEC297EF1392A3EFC313FFD2970EBEEB
:0209A10008F05C
:0109A3002231
:10097D00C29300C29700D29300120991AF051209DC
:04098D0091C293225E
:10082300E4FDC29300C29700D29300120991E4FF42
:10083300C297EDC313FD30A303430580D2970FBFC7
:1008430008EEC29300C29700D29700C2A300D2A3BE
:0308530000AF05EE
:01085600227F
:100682008B1D8A1E891FE4FD7F8E12097D7F8012D9
:10069200097DAB1D051FE51FAA1E7002051E14F978
:1006A200120273FD7F8412097DAB1D051FE51FAA8F
:1006B2001E7002051E14F9120273FD7F8212097D5B
:1006C200AB1DAA1EA91F120273FD7F8012097D7D38
:0606D200807F8E02097D0D
:10076C008B1D8A1E891FC2AF7F85120823AB1D0506
:10077C001FE51FAA1E7002051E14F9EF12028C7FD2
:10078C0083120823AB1D051FE51FAA1E7002051E50
:10079C0014F9EF12028C7F81120823AB1DAA1EA93B
:0807AC001FEF12028CD2AF22F4
:1007B4007580FFE5A0541FFF4307808FA0E5A05478
:1007C4001FF5A0E4F580E5A0541FFF4307A08FA008
:1007D400E5A0541FF5A07580FFE5A0541FFF430753
:0907E400E08FA0E5A0541FF5A070
:0107ED0022E9
:10085700E4FFC2B5D2B420B0027F0F20B1027F0EF1
:1008670020B2027F0D20B3027F0CD2B5C2B420B0F4
:10087700027F1320B1027F1220B2027F1120B30240
:020887007F10E0
:01088900224C
:0807010002300000023200FF8B
:10062400ED4C601774017E00A807088005C333CE23
:1006340033CED8F94231EE4230801B74017E00A8DB
:1006440007088005C333CE33CED8F9F4FFEEF4FEA9
:10065400EF5231EE5230E53165337004E5306532E6
:10066400601BE531F4F580E5A0541FFF4307808F3C
:0D067400A0E5A0541FF5A08530328531337C
:010681002256
:10091800EF60057580108003E4F580E5A0541FFEA4
:0B0928004306A08EA0E5A0541FF5A020
:0109330022A1
:040934007F057E00BD
:10093800EF1FAA0670011E4A600BE4FDEDC3940C7C
:0509480050EE0D80F7E8
:01094D002287
:0208FA00A9074C
:1008FC00E4FBC294E9139294120934D294E9C31321
:0C090C00F90BBB08ED7F057E00020938E6
:10094E00E4FBC294ECC313FCD294309403430480B2
:09095E001209340BBB08EBAF04D5
:01096700226D
:10088A00C204D2947F0C7E00120938C2947F507E33
:10089A0000120938D2947F0A7E00120938A2949273
:0608AA0004120934A2044F
:0108B0002225
:1007EE0012088A7FCC1208FA7F441208FA12088A7D
:1007FE007FCC1208FA7FBE1208FA12094EA9071210
:10080E00094EEFAD01FCE41201B9E4FBFA798078F0
:04081E00411201176B
:0108220022B3
:100709000D08C0F9A4B0999282F88090FFC1BF0882
:09071900150102040810204080C3
:100723007580FFE5A0541FFE4306E08EA0E5A054AC
:100733001FF5A074152FF8E6F580E5A0541FFE43BE
:1007430006C08EA0E5A0541FF5A074082DF8E6F5A9
:1007530080EB4A600353807FE5A0541FFE4306E00D
:080763008EA0E5A0541FF5A0D3
:01076B00226B
:10000E00EC4D6011E8497017ED33EC3304600DE4EC
:10001E00FCFFFEFD22E933E8330470F802025E12A3
:10002E00022958046009E4CC2481500628500902A4
:10003E000268284003020265C0E0EB4A7044B980B2
:10004E0006D0E0FB020254EF4E701CBD8008EBFFA1
:10005E00EAFEE9FD80EBE98DF0A4FEE5F00200F783
:10006E00E9CDF9EAFEEBFFEF89F0A4FCE5F0CE89CD
:10007E00F0A42EFFE435F0CD89F0A42DFEE435F08A
:10008E008067EF4E7005BD80D780C3EF8BF0A4ACB8
:10009E00F0EE8BF0A42CFCE435F0F8EF8AF0A42CF3
:1000AE00E5F038FCE433CB8DF0A42CFCE5F03BF806
:1000BE00EE8AF0A42CFCE5F038F8E433CF89F0A4F6
:1000CE002CFCE5F038CF3400CE89F0A42FFFE5F0FC
:1000DE003EFEE433C98DF0A42EFEE5F039CD8AF054
:1000EE00A42FFFE5F03EFEE43DFD33D0E0FB5007CC
:1000FE000BBB000F020268EC2CFCEF33FFEE33FE5D
:06010E00ED33FD0202408A
:10011400020268EC5D046005E85904700302025EA3
:10012400120229580460F6EC4860F2EC7004FDFEFB
:10013400FF22C860DB2481C85009C39860025006BE
:100144000202659850CAF582E9294B4A7005AB82D0
:1001540002025475F0007C1A7880C3EF9BEE9AED8E
:1001640099400DC3EF9BFFEE9AFEED99FDE842F036
:10017400DC23ACF0D0E0FFD0E0FED0E0FDAB822089
:10018400E7101BEB60BAEC2CFCEF33FFEE33FEED13
:1001940033FD020240E803F830E705C0F075F000D3
:1001A400EF2FFFEE33FEED33FD40B830E7C280AAF7
:1001B40075F020800E75F010800575F0087D007EC6
:1001C400007F003392D530D5031202F3EC33401094
:1001D400EF33FFEE33FEED33FDEC33FCD5F0ED22CF
:0E01E400E5F0247EA2D513CC92E7CDCEFF220B
:1001F200EDD2E7CD33EC3392D524814006E4FFFE05
:10020200FDFC22FCE4CFCECDCC24E0501174FF8063
:10021200EDC3CC13CCCD13CDCE13CECF13CF047000
:07022200F030D5DE0202F30B
:10022900E9D2E7C933E833F892D5EDD2E7CD33EC1B
:0702390033FC5002B2D52294
:10024000EC30E7100FBF000C0EBE00080DBD00041F
:100250000BEB6014A2D5EB13FCED92E7FD2274FFCB
:10026000FCFDFEFF22E480F8A2D574FF13FC7D8024
:03027000E480EF38
:10042F000208D7E493A3F8E493A34003F68001F204
:10043F0008DFF48029E493A3F85407240CC8C333CE
:10044F00C4540F4420C8834004F456800146F6DF9D
:10045F00E4800B01020408102040809006D8E47E4F
:10046F00019360BCA3FF543F30E509541FFEE49392
:10047F00A360010ECF54C025E060A840B8E493A359
:10048F00FAE493A3F8E493A3C8C582C8CAC583CA84
:10049F00F0A3C8C582C8CAC583CADFE9DEE780BE3C
:0107220000D6
:10027300BB010689828A83E0225002E722BBFE0289
:09028300E32289828A83E49322BC
:10028C00BB010689828A83F0225002F722BBFE0151
:02029C00F3224B
:10029E00BC000BBE0029EF8DF084FFADF022E4CC44
:1002AE00F875F008EF2FFFEE33FEEC33FCEE9DEC0D
:1002BE00984005FCEE9DFE0FD5F0E9E4CEFD22ED53
:1002CE00F8F5F0EE8420D21CFEADF075F008EF2F9D
:1002DE00FFED33FD4007985006D5F0F222C398FD8E
:0502EE000FD5F0EA222B
:0E02F300C3E49FFFE49EFEE49DFDE49CFC221C
:00000001FF
